{
    "contractName": "Marketplace",
    "abi": [
        {
            "inputs": [
                {
                    "internalType": "string",
                    "name": "_uri",
                    "type": "string"
                }
            ],
            "stateMutability": "nonpayable",
            "type": "constructor"
        },
        {
            "anonymous": false,
            "inputs": [
                {
                    "indexed": true,
                    "internalType": "address",
                    "name": "account",
                    "type": "address"
                },
                {
                    "indexed": true,
                    "internalType": "address",
                    "name": "operator",
                    "type": "address"
                },
                {
                    "indexed": false,
                    "internalType": "bool",
                    "name": "approved",
                    "type": "bool"
                }
            ],
            "name": "ApprovalForAll",
            "type": "event"
        },
        {
            "anonymous": false,
            "inputs": [
                {
                    "indexed": true,
                    "internalType": "address",
                    "name": "previousOwner",
                    "type": "address"
                },
                {
                    "indexed": true,
                    "internalType": "address",
                    "name": "newOwner",
                    "type": "address"
                }
            ],
            "name": "OwnershipTransferred",
            "type": "event"
        },
        {
            "anonymous": false,
            "inputs": [
                {
                    "indexed": true,
                    "internalType": "address",
                    "name": "operator",
                    "type": "address"
                },
                {
                    "indexed": true,
                    "internalType": "address",
                    "name": "from",
                    "type": "address"
                },
                {
                    "indexed": true,
                    "internalType": "address",
                    "name": "to",
                    "type": "address"
                },
                {
                    "indexed": false,
                    "internalType": "uint256[]",
                    "name": "ids",
                    "type": "uint256[]"
                },
                {
                    "indexed": false,
                    "internalType": "uint256[]",
                    "name": "values",
                    "type": "uint256[]"
                }
            ],
            "name": "TransferBatch",
            "type": "event"
        },
        {
            "anonymous": false,
            "inputs": [
                {
                    "indexed": true,
                    "internalType": "address",
                    "name": "operator",
                    "type": "address"
                },
                {
                    "indexed": true,
                    "internalType": "address",
                    "name": "from",
                    "type": "address"
                },
                {
                    "indexed": true,
                    "internalType": "address",
                    "name": "to",
                    "type": "address"
                },
                {
                    "indexed": false,
                    "internalType": "uint256",
                    "name": "id",
                    "type": "uint256"
                },
                {
                    "indexed": false,
                    "internalType": "uint256",
                    "name": "value",
                    "type": "uint256"
                }
            ],
            "name": "TransferSingle",
            "type": "event"
        },
        {
            "anonymous": false,
            "inputs": [
                {
                    "indexed": false,
                    "internalType": "string",
                    "name": "value",
                    "type": "string"
                },
                {
                    "indexed": true,
                    "internalType": "uint256",
                    "name": "id",
                    "type": "uint256"
                }
            ],
            "name": "URI",
            "type": "event"
        },
        {
            "inputs": [],
            "name": "BNB_TOKEN_ID",
            "outputs": [
                {
                    "internalType": "uint256",
                    "name": "",
                    "type": "uint256"
                }
            ],
            "stateMutability": "view",
            "type": "function"
        },
        {
            "inputs": [],
            "name": "HUNDRED_PERCENT",
            "outputs": [
                {
                    "internalType": "uint256",
                    "name": "",
                    "type": "uint256"
                }
            ],
            "stateMutability": "view",
            "type": "function"
        },
        {
            "inputs": [],
            "name": "SPC_TOKEN_ID",
            "outputs": [
                {
                    "internalType": "uint256",
                    "name": "",
                    "type": "uint256"
                }
            ],
            "stateMutability": "view",
            "type": "function"
        },
        {
            "inputs": [
                {
                    "internalType": "uint256",
                    "name": "",
                    "type": "uint256"
                }
            ],
            "name": "allSpectraNFT",
            "outputs": [
                {
                    "internalType": "string",
                    "name": "tokenId",
                    "type": "string"
                },
                {
                    "internalType": "string",
                    "name": "tokenMetaData",
                    "type": "string"
                },
                {
                    "internalType": "address payable",
                    "name": "currentOwner",
                    "type": "address"
                },
                {
                    "internalType": "uint256",
                    "name": "price",
                    "type": "uint256"
                },
                {
                    "internalType": "bool",
                    "name": "isUnlock",
                    "type": "bool"
                }
            ],
            "stateMutability": "view",
            "type": "function"
        },
        {
            "inputs": [
                {
                    "internalType": "address",
                    "name": "account",
                    "type": "address"
                },
                {
                    "internalType": "uint256",
                    "name": "id",
                    "type": "uint256"
                }
            ],
            "name": "balanceOf",
            "outputs": [
                {
                    "internalType": "uint256",
                    "name": "",
                    "type": "uint256"
                }
            ],
            "stateMutability": "view",
            "type": "function"
        },
        {
            "inputs": [
                {
                    "internalType": "address[]",
                    "name": "accounts",
                    "type": "address[]"
                },
                {
                    "internalType": "uint256[]",
                    "name": "ids",
                    "type": "uint256[]"
                }
            ],
            "name": "balanceOfBatch",
            "outputs": [
                {
                    "internalType": "uint256[]",
                    "name": "",
                    "type": "uint256[]"
                }
            ],
            "stateMutability": "view",
            "type": "function"
        },
        {
            "inputs": [],
            "name": "collectionName",
            "outputs": [
                {
                    "internalType": "string",
                    "name": "",
                    "type": "string"
                }
            ],
            "stateMutability": "view",
            "type": "function"
        },
        {
            "inputs": [],
            "name": "collectionNameSymbol",
            "outputs": [
                {
                    "internalType": "string",
                    "name": "",
                    "type": "string"
                }
            ],
            "stateMutability": "view",
            "type": "function"
        },
        {
            "inputs": [
                {
                    "internalType": "uint256",
                    "name": "tokenId",
                    "type": "uint256"
                }
            ],
            "name": "getOwnerOfNFT",
            "outputs": [
                {
                    "internalType": "address",
                    "name": "ownerOfNFT",
                    "type": "address"
                }
            ],
            "stateMutability": "view",
            "type": "function"
        },
        {
            "inputs": [
                {
                    "internalType": "address",
                    "name": "account",
                    "type": "address"
                },
                {
                    "internalType": "address",
                    "name": "operator",
                    "type": "address"
                }
            ],
            "name": "isApprovedForAll",
            "outputs": [
                {
                    "internalType": "bool",
                    "name": "",
                    "type": "bool"
                }
            ],
            "stateMutability": "view",
            "type": "function"
        },
        {
            "inputs": [
                {
                    "internalType": "string",
                    "name": "_tokenId",
                    "type": "string"
                },
                {
                    "internalType": "string",
                    "name": "_tokenMetaData",
                    "type": "string"
                },
                {
                    "internalType": "uint256",
                    "name": "quantityOfNFT",
                    "type": "uint256"
                },
                {
                    "internalType": "uint256",
                    "name": "_price",
                    "type": "uint256"
                },
                {
                    "internalType": "bool",
                    "name": "_isUnlock",
                    "type": "bool"
                },
                {
                    "internalType": "uint24",
                    "name": "royaltyValue",
                    "type": "uint24"
                },
                {
                    "internalType": "uint8",
                    "name": "tokenType",
                    "type": "uint8"
                }
            ],
            "name": "mintSpectraNFT",
            "outputs": [],
            "stateMutability": "nonpayable",
            "type": "function"
        },
        {
            "inputs": [],
            "name": "owner",
            "outputs": [
                {
                    "internalType": "address",
                    "name": "",
                    "type": "address"
                }
            ],
            "stateMutability": "view",
            "type": "function"
        },
        {
            "inputs": [],
            "name": "renounceOwnership",
            "outputs": [],
            "stateMutability": "nonpayable",
            "type": "function"
        },
        {
            "inputs": [
                {
                    "internalType": "address",
                    "name": "from",
                    "type": "address"
                },
                {
                    "internalType": "address",
                    "name": "to",
                    "type": "address"
                },
                {
                    "internalType": "uint256[]",
                    "name": "ids",
                    "type": "uint256[]"
                },
                {
                    "internalType": "uint256[]",
                    "name": "amounts",
                    "type": "uint256[]"
                },
                {
                    "internalType": "bytes",
                    "name": "data",
                    "type": "bytes"
                }
            ],
            "name": "safeBatchTransferFrom",
            "outputs": [],
            "stateMutability": "nonpayable",
            "type": "function"
        },
        {
            "inputs": [
                {
                    "internalType": "address",
                    "name": "from",
                    "type": "address"
                },
                {
                    "internalType": "address",
                    "name": "to",
                    "type": "address"
                },
                {
                    "internalType": "uint256",
                    "name": "id",
                    "type": "uint256"
                },
                {
                    "internalType": "uint256",
                    "name": "amount",
                    "type": "uint256"
                },
                {
                    "internalType": "bytes",
                    "name": "data",
                    "type": "bytes"
                }
            ],
            "name": "safeTransferFrom",
            "outputs": [],
            "stateMutability": "nonpayable",
            "type": "function"
        },
        {
            "inputs": [
                {
                    "internalType": "address",
                    "name": "operator",
                    "type": "address"
                },
                {
                    "internalType": "bool",
                    "name": "approved",
                    "type": "bool"
                }
            ],
            "name": "setApprovalForAll",
            "outputs": [],
            "stateMutability": "nonpayable",
            "type": "function"
        },
        {
            "inputs": [
                {
                    "internalType": "address",
                    "name": "addr",
                    "type": "address"
                },
                {
                    "internalType": "bool",
                    "name": "isCreater",
                    "type": "bool"
                }
            ],
            "name": "setCreater",
            "outputs": [],
            "stateMutability": "nonpayable",
            "type": "function"
        },
        {
            "inputs": [
                {
                    "internalType": "uint256",
                    "name": "tokenId",
                    "type": "uint256"
                },
                {
                    "internalType": "address",
                    "name": "recipient",
                    "type": "address"
                },
                {
                    "internalType": "uint256",
                    "name": "amount",
                    "type": "uint256"
                }
            ],
            "name": "setMintingFee",
            "outputs": [],
            "stateMutability": "nonpayable",
            "type": "function"
        },
        {
            "inputs": [
                {
                    "internalType": "address payable",
                    "name": "newOwner",
                    "type": "address"
                }
            ],
            "name": "setOwner",
            "outputs": [],
            "stateMutability": "nonpayable",
            "type": "function"
        },
        {
            "inputs": [
                {
                    "internalType": "uint256",
                    "name": "tokenId",
                    "type": "uint256"
                },
                {
                    "internalType": "address",
                    "name": "recipient",
                    "type": "address"
                },
                {
                    "internalType": "uint24",
                    "name": "ratio",
                    "type": "uint24"
                }
            ],
            "name": "setRoyalty",
            "outputs": [],
            "stateMutability": "nonpayable",
            "type": "function"
        },
        {
            "inputs": [
                {
                    "internalType": "uint256",
                    "name": "tokenId",
                    "type": "uint256"
                },
                {
                    "internalType": "address",
                    "name": "recipient",
                    "type": "address"
                },
                {
                    "internalType": "uint24",
                    "name": "ratio",
                    "type": "uint24"
                }
            ],
            "name": "setSellingFee",
            "outputs": [],
            "stateMutability": "nonpayable",
            "type": "function"
        },
        {
            "inputs": [],
            "name": "spectraNFTCounter",
            "outputs": [
                {
                    "internalType": "uint256",
                    "name": "",
                    "type": "uint256"
                }
            ],
            "stateMutability": "view",
            "type": "function"
        },
        {
            "inputs": [
                {
                    "internalType": "bytes4",
                    "name": "interfaceId",
                    "type": "bytes4"
                }
            ],
            "name": "supportsInterface",
            "outputs": [
                {
                    "internalType": "bool",
                    "name": "",
                    "type": "bool"
                }
            ],
            "stateMutability": "view",
            "type": "function"
        },
        {
            "inputs": [
                {
                    "internalType": "uint256",
                    "name": "",
                    "type": "uint256"
                }
            ],
            "name": "tokenIDExists",
            "outputs": [
                {
                    "internalType": "bool",
                    "name": "",
                    "type": "bool"
                }
            ],
            "stateMutability": "view",
            "type": "function"
        },
        {
            "inputs": [
                {
                    "internalType": "string",
                    "name": "",
                    "type": "string"
                }
            ],
            "name": "tokenMetaDataExists",
            "outputs": [
                {
                    "internalType": "bool",
                    "name": "",
                    "type": "bool"
                }
            ],
            "stateMutability": "view",
            "type": "function"
        },
        {
            "inputs": [
                {
                    "internalType": "string",
                    "name": "_tokenId",
                    "type": "string"
                },
                {
                    "internalType": "uint256",
                    "name": "price",
                    "type": "uint256"
                },
                {
                    "internalType": "uint8",
                    "name": "tokenType",
                    "type": "uint8"
                }
            ],
            "name": "transferNFT",
            "outputs": [],
            "stateMutability": "payable",
            "type": "function"
        },
        {
            "inputs": [
                {
                    "internalType": "address",
                    "name": "newOwner",
                    "type": "address"
                }
            ],
            "name": "transferOwnership",
            "outputs": [],
            "stateMutability": "nonpayable",
            "type": "function"
        },
        {
            "inputs": [
                {
                    "internalType": "uint256",
                    "name": "",
                    "type": "uint256"
                }
            ],
            "name": "uri",
            "outputs": [
                {
                    "internalType": "string",
                    "name": "",
                    "type": "string"
                }
            ],
            "stateMutability": "view",
            "type": "function"
        }
    ],
    "bytecode": "608060405273b8c77482e45f1f44de1745f52c74426c631bdd52600955732013fe8529077c6c6177b80ace8746f8f8a1eb4f600a55600b805461ffff19166102011790553480156200005057600080fd5b5060405162002ece38038062002ece8339810160408190526200007391620001ed565b806200007f81620000c6565b506200008b33620000df565b50600b805462010000330262010000600160b01b03199091161790556000600e5560016003556004805462ffffff1916600a17905562000306565b8051620000db90600290602084019062000131565b5050565b600880546001600160a01b038381166001600160a01b0319831681179093556040519116919082907f8be0079c531659141344cd1fd0a4f28419497f9722a3daafe3b4186f6b6457e090600090a35050565b8280546200013f90620002c9565b90600052602060002090601f016020900481019282620001635760008555620001ae565b82601f106200017e57805160ff1916838001178555620001ae565b82800160010185558215620001ae579182015b82811115620001ae57825182559160200191906001019062000191565b50620001bc929150620001c0565b5090565b5b80821115620001bc5760008155600101620001c1565b634e487b7160e01b600052604160045260246000fd5b600060208083850312156200020157600080fd5b82516001600160401b03808211156200021957600080fd5b818501915085601f8301126200022e57600080fd5b815181811115620002435762000243620001d7565b604051601f8201601f19908116603f011681019083821181831017156200026e576200026e620001d7565b8160405282815288868487010111156200028757600080fd5b600093505b82841015620002ab57848401860151818501870152928501926200028c565b82841115620002bd5760008684830101525b98975050505050505050565b600181811c90821680620002de57607f821691505b602082108114156200030057634e487b7160e01b600052602260045260246000fd5b50919050565b612bb880620003166000396000f3fe6080604052600436106101b65760003560e01c80636ed93dd0116100ec578063d80a01321161008a578063e985e9c511610064578063e985e9c5146104f1578063ea01ea221461053a578063f242432a1461055a578063f2fde38b1461057a57600080fd5b8063d80a013214610481578063e4139bb8146104bc578063e5326ab1146104dc57600080fd5b80638da5cb5b116100c65780638da5cb5b146103e8578063a22cb4651461041a578063b4d897e31461043a578063b4fc9b991461045057600080fd5b80636ed93dd0146103a95780636f9507f9146103be578063715018a6146103d357600080fd5b80631f395c7811610159578063497637241161013357806349763724146103305780634e1273f41461035057806357fdae0b1461037d5780635fe65a6d1461039357600080fd5b80631f395c78146102c05780632af3c83a146102e05780632eb2c2d61461031057600080fd5b8063077477d311610195578063077477d3146102405780630e89341c1461025357806313ae6cb31461028057806313af4035146102a057600080fd5b8062fdd58e146101bb57806301ffc9a7146101ee5780630433dc7c1461021e575b600080fd5b3480156101c757600080fd5b506101db6101d636600461207a565b61059a565b6040519081526020015b60405180910390f35b3480156101fa57600080fd5b5061020e6102093660046120bc565b610631565b60405190151581526020016101e5565b34801561022a57600080fd5b5061023e6102393660046120f0565b61065c565b005b61023e61024e3660046121ed565b610707565b34801561025f57600080fd5b5061027361026e366004612244565b610adc565b6040516101e591906122b9565b34801561028c57600080fd5b5061023e61029b3660046122cc565b610b70565b3480156102ac57600080fd5b5061023e6102bb366004612304565b610bdc565b3480156102cc57600080fd5b5061023e6102db366004612334565b610c86565b3480156102ec57600080fd5b5061020e6102fb366004612244565b60106020526000908152604090205460ff1681565b34801561031c57600080fd5b5061023e61032b3660046123fe565b610d4a565b34801561033c57600080fd5b5061023e61034b3660046124ac565b610de1565b34801561035c57600080fd5b5061037061036b366004612555565b611136565b6040516101e5919061265d565b34801561038957600080fd5b506101db60095481565b34801561039f57600080fd5b506101db600e5481565b3480156103b557600080fd5b506101db606481565b3480156103ca57600080fd5b50610273611260565b3480156103df57600080fd5b5061023e6112ee565b3480156103f457600080fd5b506008546001600160a01b03165b6040516001600160a01b0390911681526020016101e5565b34801561042657600080fd5b5061023e6104353660046120f0565b611324565b34801561044657600080fd5b506101db600a5481565b34801561045c57600080fd5b5061047061046b366004612244565b611333565b6040516101e5959493929190612670565b34801561048d57600080fd5b5061020e61049c3660046126be565b805160208183018101805160118252928201919093012091525460ff1681565b3480156104c857600080fd5b5061023e6104d7366004612334565b611480565b3480156104e857600080fd5b50610273611522565b3480156104fd57600080fd5b5061020e61050c3660046126fb565b6001600160a01b03918216600090815260016020908152604080832093909416825291909152205460ff1690565b34801561054657600080fd5b50610402610555366004612244565b61152f565b34801561056657600080fd5b5061023e610575366004612734565b61157b565b34801561058657600080fd5b5061023e610595366004612304565b611602565b60006001600160a01b03831661060b5760405162461bcd60e51b815260206004820152602b60248201527f455243313135353a2062616c616e636520717565727920666f7220746865207a60448201526a65726f206164647265737360a81b60648201526084015b60405180910390fd5b506000908152602081815260408083206001600160a01b03949094168352929052205490565b60006001600160e01b03198216636f26f47760e01b148061065657506106568261169d565b92915050565b6008546001600160a01b031633146106865760405162461bcd60e51b81526004016106029061279d565b6001600160a01b0382166106dc5760405162461bcd60e51b815260206004820152601a60248201527f496e76616c6964206372656174657220616464726573732e2e2e0000000000006044820152606401610602565b6001600160a01b03919091166000908152601360205260409020805460ff1916911515919091179055565b336107495760405162461bcd60e51b815260206004820152601260248201527124b73b30b634b21030b2323932b9b997171760711b6044820152606401610602565b600e5460009081526010602052604090205460ff161561079c5760405162461bcd60e51b815260206004820152600e60248201526d22bc34b9ba34b7339034b217171760911b6044820152606401610602565b816107a933600e5461059a565b116107f65760405162461bcd60e51b815260206004820181905260248201527f496e73756666696369656e742070757263686173652062616c616e63652e2e2e6044820152606401610602565b6000610803600e5461152f565b90506001600160a01b03811661081857600080fd5b6001600160a01b03811633141561082e57600080fd5b60008061083c600e546116a8565b9092509050600061084d82876127e8565b610858600e546116f8565b61086290886127e8565b61086c9088612807565b6108769190612807565b90506000600f6000600e5481526020019081526020016000206040518060a00160405290816000820180546108aa9061281e565b80601f01602080910402602001604051908101604052809291908181526020018280546108d69061281e565b80156109235780601f106108f857610100808354040283529160200191610923565b820191906000526020600020905b81548152906001019060200180831161090657829003601f168201915b5050505050815260200160018201805461093c9061281e565b80601f01602080910402602001604051908101604052809291908181526020018280546109689061281e565b80156109b55780601f1061098a576101008083540402835291602001916109b5565b820191906000526020600020905b81548152906001019060200180831161099857829003601f168201915b505050918352505060028201546001600160a01b0316602080830191909152600383015460408084019190915260049093015460ff161515606090920191909152600e5482518084019093526001808452600360fc1b92840192909252929350610a2392879233929061157b565b6040810151610a33818489611718565b3360408084019190915260608301899052898352600e546000908152600f6020908152919020835180518593610a6d928492910190611fcc565b506020828101518051610a869260018501920190611fcc565b5060408201516002820180546001600160a01b0319166001600160a01b03909216919091179055606082015160038201556080909101516004909101805460ff1916911515919091179055505050505050505050565b606060028054610aeb9061281e565b80601f0160208091040260200160405190810160405280929190818152602001828054610b179061281e565b8015610b645780601f10610b3957610100808354040283529160200191610b64565b820191906000526020600020905b815481529060010190602001808311610b4757829003601f168201915b50505050509050919050565b6008546001600160a01b03163314610b9a5760405162461bcd60e51b81526004016106029061279d565b6001600160a01b038216610bc05760405162461bcd60e51b815260040161060290612859565b600354600084815260066020526040902055505050565b505050565b6008546001600160a01b03163314610c065760405162461bcd60e51b81526004016106029061279d565b6001600160a01b038116610c5c5760405162461bcd60e51b815260206004820152601860248201527f496e76616c6964206f776e657220616464726573732e2e2e00000000000000006044820152606401610602565b600b80546001600160a01b03909216620100000262010000600160b01b0319909216919091179055565b6008546001600160a01b03163314610cb05760405162461bcd60e51b81526004016106029061279d565b6001600160a01b038216610cd65760405162461bcd60e51b815260040161060290612859565b60648162ffffff1610610d1d5760405162461bcd60e51b815260206004820152600f60248201526e546f6f206c6172676520726174696f60881b6044820152606401610602565b610bd783600454600091825260076020526040909120805462ffffff191662ffffff909216919091179055565b6001600160a01b038516331480610d665750610d66853361050c565b610dcd5760405162461bcd60e51b815260206004820152603260248201527f455243313135353a207472616e736665722063616c6c6572206973206e6f74206044820152711bdddb995c881b9bdc88185c1c1c9bdd995960721b6064820152608401610602565b610dda8585858585611756565b5050505050565b3360009081526013602052604090205460ff1680610e0f5750600b546201000090046001600160a01b031633145b610e505760405162461bcd60e51b81526020600482015260126024820152712737ba1027232a1031b932b0ba32b917171760711b6044820152606401610602565b33610e925760405162461bcd60e51b815260206004820152601260248201527124b73b30b634b21030b2323932b9b997171760711b6044820152606401610602565b3360009081526013602052604090205460ff16610ee95760405162461bcd60e51b81526020600482015260156024820152742234b9b0b63637bbb2b21031b932b0ba32b917171760591b6044820152606401610602565b600e8054600090815260126020526040812080546001600160a01b0319163317905581549190610f1883612890565b9091555050600e5460009081526010602052604090205460ff1615610f705760405162461bcd60e51b815260206004820152600e60248201526d22bc34b9ba34b7339034b217171760911b6044820152606401610602565b601186604051610f8091906128ab565b9081526040519081900360200190205460ff1615610fd85760405162461bcd60e51b815260206004820152601560248201527422bc34b9ba34b7339036b2ba30b230ba309717171760591b6044820152606401610602565b610ff533600e548760405180602001604052806000815250611933565b600b54600e54600090815260066020526040902054611024916201000090046001600160a01b03169083611718565b600e5460009081526010602052604090819020805460ff1916600190811790915590516011906110559089906128ab565b9081526040805160209281900383018120805460ff19169415159490941790935560a0830181528983528183018990523383820152606083018790528515156080840152600e546000908152600f8352208251805184936110ba928492910190611fcc565b5060208281015180516110d39260018501920190611fcc565b5060408201516002820180546001600160a01b0319166001600160a01b03909216919091179055606082015160038201556080909101516004909101805460ff1916911515919091179055600e5461112c903385611a3d565b5050505050505050565b6060815183511461119b5760405162461bcd60e51b815260206004820152602960248201527f455243313135353a206163636f756e747320616e6420696473206c656e677468604482015268040dad2e6dac2e8c6d60bb1b6064820152608401610602565b6000835167ffffffffffffffff8111156111b7576111b7612125565b6040519080825280602002602001820160405280156111e0578160200160208202803683370190505b50905060005b84518110156112585761122b858281518110611204576112046128c7565b602002602001015185838151811061121e5761121e6128c7565b602002602001015161059a565b82828151811061123d5761123d6128c7565b602090810291909101015261125181612890565b90506111e6565b509392505050565b600d805461126d9061281e565b80601f01602080910402602001604051908101604052809291908181526020018280546112999061281e565b80156112e65780601f106112bb576101008083540402835291602001916112e6565b820191906000526020600020905b8154815290600101906020018083116112c957829003601f168201915b505050505081565b6008546001600160a01b031633146113185760405162461bcd60e51b81526004016106029061279d565b6113226000611a94565b565b61132f338383611ae6565b5050565b600f6020526000908152604090208054819061134e9061281e565b80601f016020809104026020016040519081016040528092919081815260200182805461137a9061281e565b80156113c75780601f1061139c576101008083540402835291602001916113c7565b820191906000526020600020905b8154815290600101906020018083116113aa57829003601f168201915b5050505050908060010180546113dc9061281e565b80601f01602080910402602001604051908101604052809291908181526020018280546114089061281e565b80156114555780601f1061142a57610100808354040283529160200191611455565b820191906000526020600020905b81548152906001019060200180831161143857829003601f168201915b505050506002830154600384015460049094015492936001600160a01b039091169290915060ff1685565b6008546001600160a01b031633146114aa5760405162461bcd60e51b81526004016106029061279d565b6001600160a01b0382166114d05760405162461bcd60e51b815260040161060290612859565b60648162ffffff16106115175760405162461bcd60e51b815260206004820152600f60248201526e546f6f206c6172676520726174696f60881b6044820152606401610602565b610bd7838383611a3d565b600c805461126d9061281e565b6008546000906001600160a01b0316331461155c5760405162461bcd60e51b81526004016106029061279d565b506000818152601260205260409020546001600160a01b03165b919050565b6001600160a01b0385163314806115975750611597853361050c565b6115f55760405162461bcd60e51b815260206004820152602960248201527f455243313135353a2063616c6c6572206973206e6f74206f776e6572206e6f7260448201526808185c1c1c9bdd995960ba1b6064820152608401610602565b610dda8585858585611bc7565b6008546001600160a01b0316331461162c5760405162461bcd60e51b81526004016106029061279d565b6001600160a01b0381166116915760405162461bcd60e51b815260206004820152602660248201527f4f776e61626c653a206e6577206f776e657220697320746865207a65726f206160448201526564647265737360d01b6064820152608401610602565b61169a81611a94565b50565b600061065682611ce4565b60008181526005602090815260408083208151808301909252546001600160a01b038116808352600160a01b90910462ffffff1692820183905292916116f0906064906128dd565b915050915091565b6000818152600760205260408120546106569060649062ffffff166128dd565b600b5460ff8281169116141561173257610bd78383611d34565b600b5460ff82811661010090920416141561174c57505050565b610bd78383611d34565b81518351146117b85760405162461bcd60e51b815260206004820152602860248201527f455243313135353a2069647320616e6420616d6f756e7473206c656e677468206044820152670dad2e6dac2e8c6d60c31b6064820152608401610602565b6001600160a01b0384166117de5760405162461bcd60e51b8152600401610602906128ff565b3360005b84518110156118c55760008582815181106117ff576117ff6128c7565b60200260200101519050600085838151811061181d5761181d6128c7565b602090810291909101810151600084815280835260408082206001600160a01b038e16835290935291909120549091508181101561186d5760405162461bcd60e51b815260040161060290612944565b6000838152602081815260408083206001600160a01b038e8116855292528083208585039055908b168252812080548492906118aa90849061298e565b92505081905550505050806118be90612890565b90506117e2565b50846001600160a01b0316866001600160a01b0316826001600160a01b03167f4a39dc06d4c0dbc64b70af90fd698a233a518aa5d07e595d983b8c0526c8f7fb87876040516119159291906129a6565b60405180910390a461192b818787878787611d6a565b505050505050565b6001600160a01b0384166119935760405162461bcd60e51b815260206004820152602160248201527f455243313135353a206d696e7420746f20746865207a65726f206164647265736044820152607360f81b6064820152608401610602565b336119ad816000876119a488611ec6565b610dda88611ec6565b6000848152602081815260408083206001600160a01b0389168452909152812080548592906119dd90849061298e565b909155505060408051858152602081018590526001600160a01b0380881692600092918516917fc3d58168c5ae7397731d063d5bbf3d657854427343f4c083240f7aacaa2d0f62910160405180910390a4610dda81600087878787611f11565b6040805180820182526001600160a01b03938416815262ffffff928316602080830191825260009687526005905291909420935184549151909216600160a01b026001600160b81b03199091169190921617179055565b600880546001600160a01b038381166001600160a01b0319831681179093556040519116919082907f8be0079c531659141344cd1fd0a4f28419497f9722a3daafe3b4186f6b6457e090600090a35050565b816001600160a01b0316836001600160a01b03161415611b5a5760405162461bcd60e51b815260206004820152602960248201527f455243313135353a2073657474696e6720617070726f76616c20737461747573604482015268103337b91039b2b63360b91b6064820152608401610602565b6001600160a01b03838116600081815260016020908152604080832094871680845294825291829020805460ff191686151590811790915591519182527f17307eab39ab6107e8899845ad3d59bd9653f200f220920489ca2b5937696c31910160405180910390a3505050565b6001600160a01b038416611bed5760405162461bcd60e51b8152600401610602906128ff565b33611bfd8187876119a488611ec6565b6000848152602081815260408083206001600160a01b038a16845290915290205483811015611c3e5760405162461bcd60e51b815260040161060290612944565b6000858152602081815260408083206001600160a01b038b8116855292528083208785039055908816825281208054869290611c7b90849061298e565b909155505060408051868152602081018690526001600160a01b03808916928a821692918616917fc3d58168c5ae7397731d063d5bbf3d657854427343f4c083240f7aacaa2d0f62910160405180910390a4611cdb828888888888611f11565b50505050505050565b60006001600160e01b03198216636cdb3d1360e11b1480611d1557506001600160e01b031982166303a24d0760e21b145b8061065657506301ffc9a760e01b6001600160e01b0319831614610656565b6040516001600160a01b0383169082156108fc029083906000818181858888f19350505050158015610bd7573d6000803e3d6000fd5b6001600160a01b0384163b1561192b5760405163bc197c8160e01b81526001600160a01b0385169063bc197c8190611dae90899089908890889088906004016129d4565b6020604051808303816000875af1925050508015611de9575060408051601f3d908101601f19168201909252611de691810190612a32565b60015b611e9657611df5612a4f565b806308c379a01415611e2f5750611e0a612a6b565b80611e155750611e31565b8060405162461bcd60e51b815260040161060291906122b9565b505b60405162461bcd60e51b815260206004820152603460248201527f455243313135353a207472616e7366657220746f206e6f6e20455243313135356044820152732932b1b2b4bb32b91034b6b83632b6b2b73a32b960611b6064820152608401610602565b6001600160e01b0319811663bc197c8160e01b14611cdb5760405162461bcd60e51b815260040161060290612af5565b60408051600180825281830190925260609160009190602080830190803683370190505090508281600081518110611f0057611f006128c7565b602090810291909101015292915050565b6001600160a01b0384163b1561192b5760405163f23a6e6160e01b81526001600160a01b0385169063f23a6e6190611f559089908990889088908890600401612b3d565b6020604051808303816000875af1925050508015611f90575060408051601f3d908101601f19168201909252611f8d91810190612a32565b60015b611f9c57611df5612a4f565b6001600160e01b0319811663f23a6e6160e01b14611cdb5760405162461bcd60e51b815260040161060290612af5565b828054611fd89061281e565b90600052602060002090601f016020900481019282611ffa5760008555612040565b82601f1061201357805160ff1916838001178555612040565b82800160010185558215612040579182015b82811115612040578251825591602001919060010190612025565b5061204c929150612050565b5090565b5b8082111561204c5760008155600101612051565b6001600160a01b038116811461169a57600080fd5b6000806040838503121561208d57600080fd5b823561209881612065565b946020939093013593505050565b6001600160e01b03198116811461169a57600080fd5b6000602082840312156120ce57600080fd5b81356120d9816120a6565b9392505050565b8035801515811461157657600080fd5b6000806040838503121561210357600080fd5b823561210e81612065565b915061211c602084016120e0565b90509250929050565b634e487b7160e01b600052604160045260246000fd5b601f8201601f1916810167ffffffffffffffff8111828210171561216157612161612125565b6040525050565b600082601f83011261217957600080fd5b813567ffffffffffffffff81111561219357612193612125565b6040516121aa601f8301601f19166020018261213b565b8181528460208386010111156121bf57600080fd5b816020850160208301376000918101602001919091529392505050565b803560ff8116811461157657600080fd5b60008060006060848603121561220257600080fd5b833567ffffffffffffffff81111561221957600080fd5b61222586828701612168565b9350506020840135915061223b604085016121dc565b90509250925092565b60006020828403121561225657600080fd5b5035919050565b60005b83811015612278578181015183820152602001612260565b83811115612287576000848401525b50505050565b600081518084526122a581602086016020860161225d565b601f01601f19169290920160200192915050565b6020815260006120d9602083018461228d565b6000806000606084860312156122e157600080fd5b8335925060208401356122f381612065565b929592945050506040919091013590565b60006020828403121561231657600080fd5b81356120d981612065565b803562ffffff8116811461157657600080fd5b60008060006060848603121561234957600080fd5b83359250602084013561235b81612065565b915061223b60408501612321565b600067ffffffffffffffff82111561238357612383612125565b5060051b60200190565b600082601f83011261239e57600080fd5b813560206123ab82612369565b6040516123b8828261213b565b83815260059390931b85018201928281019150868411156123d857600080fd5b8286015b848110156123f357803583529183019183016123dc565b509695505050505050565b600080600080600060a0868803121561241657600080fd5b853561242181612065565b9450602086013561243181612065565b9350604086013567ffffffffffffffff8082111561244e57600080fd5b61245a89838a0161238d565b9450606088013591508082111561247057600080fd5b61247c89838a0161238d565b9350608088013591508082111561249257600080fd5b5061249f88828901612168565b9150509295509295909350565b600080600080600080600060e0888a0312156124c757600080fd5b873567ffffffffffffffff808211156124df57600080fd5b6124eb8b838c01612168565b985060208a013591508082111561250157600080fd5b5061250e8a828b01612168565b965050604088013594506060880135935061252b608089016120e0565b925061253960a08901612321565b915061254760c089016121dc565b905092959891949750929550565b6000806040838503121561256857600080fd5b823567ffffffffffffffff8082111561258057600080fd5b818501915085601f83011261259457600080fd5b813560206125a182612369565b6040516125ae828261213b565b83815260059390931b85018201928281019150898411156125ce57600080fd5b948201945b838610156125f55785356125e681612065565b825294820194908201906125d3565b9650508601359250508082111561260b57600080fd5b506126188582860161238d565b9150509250929050565b600081518084526020808501945080840160005b8381101561265257815187529582019590820190600101612636565b509495945050505050565b6020815260006120d96020830184612622565b60a08152600061268360a083018861228d565b8281036020840152612695818861228d565b6001600160a01b0396909616604084015250506060810192909252151560809091015292915050565b6000602082840312156126d057600080fd5b813567ffffffffffffffff8111156126e757600080fd5b6126f384828501612168565b949350505050565b6000806040838503121561270e57600080fd5b823561271981612065565b9150602083013561272981612065565b809150509250929050565b600080600080600060a0868803121561274c57600080fd5b853561275781612065565b9450602086013561276781612065565b93506040860135925060608601359150608086013567ffffffffffffffff81111561279157600080fd5b61249f88828901612168565b6020808252818101527f4f776e61626c653a2063616c6c6572206973206e6f7420746865206f776e6572604082015260600190565b634e487b7160e01b600052601160045260246000fd5b6000816000190483118215151615612802576128026127d2565b500290565b600082821015612819576128196127d2565b500390565b600181811c9082168061283257607f821691505b6020821081141561285357634e487b7160e01b600052602260045260246000fd5b50919050565b6020808252601c908201527f496e76616c696420726563697069656e7420616464726573732e2e2e00000000604082015260600190565b60006000198214156128a4576128a46127d2565b5060010190565b600082516128bd81846020870161225d565b9190910192915050565b634e487b7160e01b600052603260045260246000fd5b6000826128fa57634e487b7160e01b600052601260045260246000fd5b500490565b60208082526025908201527f455243313135353a207472616e7366657220746f20746865207a65726f206164604082015264647265737360d81b606082015260800190565b6020808252602a908201527f455243313135353a20696e73756666696369656e742062616c616e636520666f60408201526939103a3930b739b332b960b11b606082015260800190565b600082198211156129a1576129a16127d2565b500190565b6040815260006129b96040830185612622565b82810360208401526129cb8185612622565b95945050505050565b6001600160a01b0386811682528516602082015260a060408201819052600090612a0090830186612622565b8281036060840152612a128186612622565b90508281036080840152612a26818561228d565b98975050505050505050565b600060208284031215612a4457600080fd5b81516120d9816120a6565b600060033d1115612a685760046000803e5060005160e01c5b90565b600060443d1015612a795790565b6040516003193d81016004833e81513d67ffffffffffffffff8160248401118184111715612aa957505050505090565b8285019150815181811115612ac15750505050505090565b843d8701016020828501011115612adb5750505050505090565b612aea6020828601018761213b565b509095945050505050565b60208082526028908201527f455243313135353a204552433131353552656365697665722072656a656374656040820152676420746f6b656e7360c01b606082015260800190565b6001600160a01b03868116825285166020820152604081018490526060810183905260a060808201819052600090612b779083018461228d565b97965050505050505056fea2646970667358221220c9dee8cd3626b8f0d730c1f4986ae1f11934a85e270f25e31755bc83c327403864736f6c634300080a0033",
    "sourcePath": "f:/Works/Gigaland/src/smart_contract/contracts/Marketplace.sol",
    "compiler": {
        "name": "solc",
        "version": "0.8.10+commit.fc410830"
    },
    "functionHashes": {
        "BNB_TOKEN_ID()": "57fdae0b",
        "HUNDRED_PERCENT()": "6ed93dd0",
        "SPC_TOKEN_ID()": "b4d897e3",
        "allSpectraNFT(uint256)": "b4fc9b99",
        "balanceOf(address,uint256)": "00fdd58e",
        "balanceOfBatch(address[],uint256[])": "4e1273f4",
        "collectionName()": "e5326ab1",
        "collectionNameSymbol()": "6f9507f9",
        "getOwnerOfNFT(uint256)": "ea01ea22",
        "isApprovedForAll(address,address)": "e985e9c5",
        "mintSpectraNFT(string,string,uint256,uint256,bool,uint24,uint8)": "49763724",
        "owner()": "8da5cb5b",
        "renounceOwnership()": "715018a6",
        "safeBatchTransferFrom(address,address,uint256[],uint256[],bytes)": "2eb2c2d6",
        "safeTransferFrom(address,address,uint256,uint256,bytes)": "f242432a",
        "setApprovalForAll(address,bool)": "a22cb465",
        "setCreater(address,bool)": "0433dc7c",
        "setMintingFee(uint256,address,uint256)": "13ae6cb3",
        "setOwner(address)": "13af4035",
        "setRoyalty(uint256,address,uint24)": "e4139bb8",
        "setSellingFee(uint256,address,uint24)": "1f395c78",
        "spectraNFTCounter()": "5fe65a6d",
        "supportsInterface(bytes4)": "01ffc9a7",
        "tokenIDExists(uint256)": "2af3c83a",
        "tokenMetaDataExists(string)": "d80a0132",
        "transferNFT(string,uint256,uint8)": "077477d3",
        "transferOwnership(address)": "f2fde38b",
        "uri(uint256)": "0e89341c"
    },
    "gasEstimates": {
        "creation": {
            "codeDepositCost": "2238400",
            "executionCost": "infinite",
            "totalCost": "infinite"
        },
        "external": {
            "BNB_TOKEN_ID()": "2373",
            "HUNDRED_PERCENT()": "230",
            "SPC_TOKEN_ID()": "2373",
            "allSpectraNFT(uint256)": "infinite",
            "balanceOf(address,uint256)": "2712",
            "balanceOfBatch(address[],uint256[])": "infinite",
            "collectionName()": "infinite",
            "collectionNameSymbol()": "infinite",
            "getOwnerOfNFT(uint256)": "4709",
            "isApprovedForAll(address,address)": "infinite",
            "mintSpectraNFT(string,string,uint256,uint256,bool,uint24,uint8)": "infinite",
            "owner()": "2365",
            "renounceOwnership()": "28207",
            "safeBatchTransferFrom(address,address,uint256[],uint256[],bytes)": "infinite",
            "safeTransferFrom(address,address,uint256,uint256,bytes)": "infinite",
            "setApprovalForAll(address,bool)": "26777",
            "setCreater(address,bool)": "26984",
            "setMintingFee(uint256,address,uint256)": "26889",
            "setOwner(address)": "26863",
            "setRoyalty(uint256,address,uint24)": "27170",
            "setSellingFee(uint256,address,uint24)": "29091",
            "spectraNFTCounter()": "2395",
            "supportsInterface(bytes4)": "infinite",
            "tokenIDExists(uint256)": "2518",
            "tokenMetaDataExists(string)": "infinite",
            "transferNFT(string,uint256,uint8)": "infinite",
            "transferOwnership(address)": "infinite",
            "uri(uint256)": "infinite"
        },
        "internal": {
            "transferInBNB(address payable,uint256)": "infinite",
            "transferInETH(address payable,uint256)": "infinite",
            "transferInSPC(address payable,uint256)": "infinite",
            "transferOnBSC(address payable,uint256,uint8)": "infinite"
        }
    }
}