{
    "contractName": "NFT",
    "abi": [
        {
            "inputs": [],
            "stateMutability": "nonpayable",
            "type": "constructor"
        },
        {
            "anonymous": false,
            "inputs": [
                {
                    "indexed": true,
                    "internalType": "address",
                    "name": "owner",
                    "type": "address"
                },
                {
                    "indexed": true,
                    "internalType": "address",
                    "name": "approved",
                    "type": "address"
                },
                {
                    "indexed": true,
                    "internalType": "uint256",
                    "name": "tokenId",
                    "type": "uint256"
                }
            ],
            "name": "Approval",
            "type": "event"
        },
        {
            "anonymous": false,
            "inputs": [
                {
                    "indexed": true,
                    "internalType": "address",
                    "name": "owner",
                    "type": "address"
                },
                {
                    "indexed": true,
                    "internalType": "address",
                    "name": "operator",
                    "type": "address"
                },
                {
                    "indexed": false,
                    "internalType": "bool",
                    "name": "approved",
                    "type": "bool"
                }
            ],
            "name": "ApprovalForAll",
            "type": "event"
        },
        {
            "anonymous": false,
            "inputs": [
                {
                    "indexed": true,
                    "internalType": "address",
                    "name": "from",
                    "type": "address"
                },
                {
                    "indexed": true,
                    "internalType": "address",
                    "name": "to",
                    "type": "address"
                },
                {
                    "indexed": true,
                    "internalType": "uint256",
                    "name": "tokenId",
                    "type": "uint256"
                }
            ],
            "name": "Transfer",
            "type": "event"
        },
        {
            "inputs": [
                {
                    "internalType": "address",
                    "name": "to",
                    "type": "address"
                },
                {
                    "internalType": "uint256",
                    "name": "tokenId",
                    "type": "uint256"
                }
            ],
            "name": "approve",
            "outputs": [],
            "stateMutability": "nonpayable",
            "type": "function"
        },
        {
            "inputs": [
                {
                    "internalType": "address",
                    "name": "owner",
                    "type": "address"
                }
            ],
            "name": "balanceOf",
            "outputs": [
                {
                    "internalType": "uint256",
                    "name": "",
                    "type": "uint256"
                }
            ],
            "stateMutability": "view",
            "type": "function"
        },
        {
            "inputs": [
                {
                    "internalType": "uint256",
                    "name": "tokenId",
                    "type": "uint256"
                }
            ],
            "name": "getApproved",
            "outputs": [
                {
                    "internalType": "address",
                    "name": "",
                    "type": "address"
                }
            ],
            "stateMutability": "view",
            "type": "function"
        },
        {
            "inputs": [
                {
                    "internalType": "address",
                    "name": "owner",
                    "type": "address"
                },
                {
                    "internalType": "address",
                    "name": "operator",
                    "type": "address"
                }
            ],
            "name": "isApprovedForAll",
            "outputs": [
                {
                    "internalType": "bool",
                    "name": "",
                    "type": "bool"
                }
            ],
            "stateMutability": "view",
            "type": "function"
        },
        {
            "inputs": [],
            "name": "mintNFT",
            "outputs": [
                {
                    "internalType": "uint256",
                    "name": "",
                    "type": "uint256"
                }
            ],
            "stateMutability": "payable",
            "type": "function"
        },
        {
            "inputs": [],
            "name": "myItems",
            "outputs": [
                {
                    "internalType": "uint256[]",
                    "name": "items",
                    "type": "uint256[]"
                }
            ],
            "stateMutability": "view",
            "type": "function"
        },
        {
            "inputs": [],
            "name": "name",
            "outputs": [
                {
                    "internalType": "string",
                    "name": "",
                    "type": "string"
                }
            ],
            "stateMutability": "view",
            "type": "function"
        },
        {
            "inputs": [
                {
                    "internalType": "uint256",
                    "name": "tokenId",
                    "type": "uint256"
                }
            ],
            "name": "ownerOf",
            "outputs": [
                {
                    "internalType": "address",
                    "name": "",
                    "type": "address"
                }
            ],
            "stateMutability": "view",
            "type": "function"
        },
        {
            "inputs": [
                {
                    "internalType": "address",
                    "name": "from",
                    "type": "address"
                },
                {
                    "internalType": "address",
                    "name": "to",
                    "type": "address"
                },
                {
                    "internalType": "uint256",
                    "name": "tokenId",
                    "type": "uint256"
                }
            ],
            "name": "safeTransferFrom",
            "outputs": [],
            "stateMutability": "nonpayable",
            "type": "function"
        },
        {
            "inputs": [
                {
                    "internalType": "address",
                    "name": "from",
                    "type": "address"
                },
                {
                    "internalType": "address",
                    "name": "to",
                    "type": "address"
                },
                {
                    "internalType": "uint256",
                    "name": "tokenId",
                    "type": "uint256"
                },
                {
                    "internalType": "bytes",
                    "name": "_data",
                    "type": "bytes"
                }
            ],
            "name": "safeTransferFrom",
            "outputs": [],
            "stateMutability": "nonpayable",
            "type": "function"
        },
        {
            "inputs": [
                {
                    "internalType": "address",
                    "name": "operator",
                    "type": "address"
                },
                {
                    "internalType": "bool",
                    "name": "approved",
                    "type": "bool"
                }
            ],
            "name": "setApprovalForAll",
            "outputs": [],
            "stateMutability": "nonpayable",
            "type": "function"
        },
        {
            "inputs": [
                {
                    "internalType": "bytes4",
                    "name": "interfaceId",
                    "type": "bytes4"
                }
            ],
            "name": "supportsInterface",
            "outputs": [
                {
                    "internalType": "bool",
                    "name": "",
                    "type": "bool"
                }
            ],
            "stateMutability": "view",
            "type": "function"
        },
        {
            "inputs": [],
            "name": "symbol",
            "outputs": [
                {
                    "internalType": "string",
                    "name": "",
                    "type": "string"
                }
            ],
            "stateMutability": "view",
            "type": "function"
        },
        {
            "inputs": [
                {
                    "internalType": "uint256",
                    "name": "tokenId",
                    "type": "uint256"
                }
            ],
            "name": "tokenURI",
            "outputs": [
                {
                    "internalType": "string",
                    "name": "",
                    "type": "string"
                }
            ],
            "stateMutability": "view",
            "type": "function"
        },
        {
            "inputs": [
                {
                    "internalType": "address",
                    "name": "from",
                    "type": "address"
                },
                {
                    "internalType": "address",
                    "name": "to",
                    "type": "address"
                },
                {
                    "internalType": "uint256",
                    "name": "tokenId",
                    "type": "uint256"
                }
            ],
            "name": "transferFrom",
            "outputs": [],
            "stateMutability": "nonpayable",
            "type": "function"
        }
    ],
    "bytecode": "60806040523480156200001157600080fd5b50604080518082018252600b81526a14dc1958dd1c984813919560aa1b60208083019182528351808501909452600684526514d410d3919560d21b908401528151919291620000639160009162000082565b5080516200007990600190602084019062000082565b50505062000165565b828054620000909062000128565b90600052602060002090601f016020900481019282620000b45760008555620000ff565b82601f10620000cf57805160ff1916838001178555620000ff565b82800160010185558215620000ff579182015b82811115620000ff578251825591602001919060010190620000e2565b506200010d92915062000111565b5090565b5b808211156200010d576000815560010162000112565b600181811c908216806200013d57607f821691505b602082108114156200015f57634e487b7160e01b600052602260045260246000fd5b50919050565b6115a780620001756000396000f3fe6080604052600436106100e85760003560e01c806342842e0e1161008a578063a22cb46511610059578063a22cb4651461026b578063b88d4fde1461028b578063c87b56dd146102ab578063e985e9c5146102cb57600080fd5b806342842e0e146101f65780636352211e1461021657806370a082311461023657806395d89b411461025657600080fd5b8063095ea7b3116100c6578063095ea7b31461017c57806310dd7a4c1461019e57806314f710fe146101c057806323b872dd146101d657600080fd5b806301ffc9a7146100ed57806306fdde0314610122578063081812fc14610144575b600080fd5b3480156100f957600080fd5b5061010d610108366004611073565b610314565b60405190151581526020015b60405180910390f35b34801561012e57600080fd5b50610137610366565b60405161011991906110e8565b34801561015057600080fd5b5061016461015f3660046110fb565b6103f8565b6040516001600160a01b039091168152602001610119565b34801561018857600080fd5b5061019c610197366004611130565b610492565b005b3480156101aa57600080fd5b506101b36105a8565b604051610119919061115a565b6101c8610662565b604051908152602001610119565b3480156101e257600080fd5b5061019c6101f136600461119e565b61068d565b34801561020257600080fd5b5061019c61021136600461119e565b6106be565b34801561022257600080fd5b506101646102313660046110fb565b6106d9565b34801561024257600080fd5b506101c86102513660046111da565b610750565b34801561026257600080fd5b506101376107d7565b34801561027757600080fd5b5061019c6102863660046111f5565b6107e6565b34801561029757600080fd5b5061019c6102a6366004611247565b6107f5565b3480156102b757600080fd5b506101376102c63660046110fb565b61082d565b3480156102d757600080fd5b5061010d6102e6366004611323565b6001600160a01b03918216600090815260056020908152604080832093909416825291909152205460ff1690565b60006001600160e01b031982166380ac58cd60e01b148061034557506001600160e01b03198216635b5e139f60e01b145b8061036057506301ffc9a760e01b6001600160e01b03198316145b92915050565b60606000805461037590611356565b80601f01602080910402602001604051908101604052809291908181526020018280546103a190611356565b80156103ee5780601f106103c3576101008083540402835291602001916103ee565b820191906000526020600020905b8154815290600101906020018083116103d157829003601f168201915b5050505050905090565b6000818152600260205260408120546001600160a01b03166104765760405162461bcd60e51b815260206004820152602c60248201527f4552433732313a20617070726f76656420717565727920666f72206e6f6e657860448201526b34b9ba32b73a103a37b5b2b760a11b60648201526084015b60405180910390fd5b506000908152600460205260409020546001600160a01b031690565b600061049d826106d9565b9050806001600160a01b0316836001600160a01b0316141561050b5760405162461bcd60e51b815260206004820152602160248201527f4552433732313a20617070726f76616c20746f2063757272656e74206f776e656044820152603960f91b606482015260840161046d565b336001600160a01b0382161480610527575061052781336102e6565b6105995760405162461bcd60e51b815260206004820152603860248201527f4552433732313a20617070726f76652063616c6c6572206973206e6f74206f7760448201527f6e6572206e6f7220617070726f76656420666f7220616c6c0000000000000000606482015260840161046d565b6105a38383610915565b505050565b60606105b333610750565b67ffffffffffffffff8111156105cb576105cb611231565b6040519080825280602002602001820160405280156105f4578160200160208202803683370190505b509050600060015b60065481101561065d5733610610826106d9565b6001600160a01b0316141561064b578083838151811061063257610632611391565b602090810291909101015281610647816113bd565b9250505b80610655816113bd565b9150506105fc565b505090565b600061067033600654610983565b60068054906000610680836113bd565b9190505550600654905090565b6106973382610ac5565b6106b35760405162461bcd60e51b815260040161046d906113d8565b6105a3838383610bbc565b6105a3838383604051806020016040528060008152506107f5565b6000818152600260205260408120546001600160a01b0316806103605760405162461bcd60e51b815260206004820152602960248201527f4552433732313a206f776e657220717565727920666f72206e6f6e657869737460448201526832b73a103a37b5b2b760b91b606482015260840161046d565b60006001600160a01b0382166107bb5760405162461bcd60e51b815260206004820152602a60248201527f4552433732313a2062616c616e636520717565727920666f7220746865207a65604482015269726f206164647265737360b01b606482015260840161046d565b506001600160a01b031660009081526003602052604090205490565b60606001805461037590611356565b6107f1338383610d5c565b5050565b6107ff3383610ac5565b61081b5760405162461bcd60e51b815260040161046d906113d8565b61082784848484610e2b565b50505050565b6000818152600260205260409020546060906001600160a01b03166108ac5760405162461bcd60e51b815260206004820152602f60248201527f4552433732314d657461646174613a2055524920717565727920666f72206e6f60448201526e3732bc34b9ba32b73a103a37b5b2b760891b606482015260840161046d565b60006108c360408051602081019091526000815290565b905060008151116108e3576040518060200160405280600081525061090e565b806108ed84610e5e565b6040516020016108fe929190611429565b6040516020818303038152906040525b9392505050565b600081815260046020526040902080546001600160a01b0319166001600160a01b038416908117909155819061094a826106d9565b6001600160a01b03167f8c5be1e5ebec7d5bd14f71427d1e84f3dd0314c0f7b2291e5b200ac8c7c3b92560405160405180910390a45050565b6001600160a01b0382166109d95760405162461bcd60e51b815260206004820181905260248201527f4552433732313a206d696e7420746f20746865207a65726f2061646472657373604482015260640161046d565b6000818152600260205260409020546001600160a01b031615610a3e5760405162461bcd60e51b815260206004820152601c60248201527f4552433732313a20746f6b656e20616c7265616479206d696e74656400000000604482015260640161046d565b6001600160a01b0382166000908152600360205260408120805460019290610a67908490611458565b909155505060008181526002602052604080822080546001600160a01b0319166001600160a01b03861690811790915590518392907fddf252ad1be2c89b69c2b068fc378daa952ba7f163c4a11628f55a4df523b3ef908290a45050565b6000818152600260205260408120546001600160a01b0316610b3e5760405162461bcd60e51b815260206004820152602c60248201527f4552433732313a206f70657261746f7220717565727920666f72206e6f6e657860448201526b34b9ba32b73a103a37b5b2b760a11b606482015260840161046d565b6000610b49836106d9565b9050806001600160a01b0316846001600160a01b03161480610b845750836001600160a01b0316610b79846103f8565b6001600160a01b0316145b80610bb457506001600160a01b0380821660009081526005602090815260408083209388168352929052205460ff165b949350505050565b826001600160a01b0316610bcf826106d9565b6001600160a01b031614610c375760405162461bcd60e51b815260206004820152602960248201527f4552433732313a207472616e73666572206f6620746f6b656e2074686174206960448201526839903737ba1037bbb760b91b606482015260840161046d565b6001600160a01b038216610c995760405162461bcd60e51b8152602060048201526024808201527f4552433732313a207472616e7366657220746f20746865207a65726f206164646044820152637265737360e01b606482015260840161046d565b610ca4600082610915565b6001600160a01b0383166000908152600360205260408120805460019290610ccd908490611470565b90915550506001600160a01b0382166000908152600360205260408120805460019290610cfb908490611458565b909155505060008181526002602052604080822080546001600160a01b0319166001600160a01b0386811691821790925591518493918716917fddf252ad1be2c89b69c2b068fc378daa952ba7f163c4a11628f55a4df523b3ef91a4505050565b816001600160a01b0316836001600160a01b03161415610dbe5760405162461bcd60e51b815260206004820152601960248201527f4552433732313a20617070726f766520746f2063616c6c657200000000000000604482015260640161046d565b6001600160a01b03838116600081815260056020908152604080832094871680845294825291829020805460ff191686151590811790915591519182527f17307eab39ab6107e8899845ad3d59bd9653f200f220920489ca2b5937696c31910160405180910390a3505050565b610e36848484610bbc565b610e4284848484610f5c565b6108275760405162461bcd60e51b815260040161046d90611487565b606081610e825750506040805180820190915260018152600360fc1b602082015290565b8160005b8115610eac5780610e96816113bd565b9150610ea59050600a836114ef565b9150610e86565b60008167ffffffffffffffff811115610ec757610ec7611231565b6040519080825280601f01601f191660200182016040528015610ef1576020820181803683370190505b5090505b8415610bb457610f06600183611470565b9150610f13600a86611503565b610f1e906030611458565b60f81b818381518110610f3357610f33611391565b60200101906001600160f81b031916908160001a905350610f55600a866114ef565b9450610ef5565b60006001600160a01b0384163b1561104f57604051630a85bd0160e11b81526001600160a01b0385169063150b7a0290610fa0903390899088908890600401611517565b6020604051808303816000875af1925050508015610fdb575060408051601f3d908101601f19168201909252610fd891810190611554565b60015b611035573d808015611009576040519150601f19603f3d011682016040523d82523d6000602084013e61100e565b606091505b50805161102d5760405162461bcd60e51b815260040161046d90611487565b805181602001fd5b6001600160e01b031916630a85bd0160e11b149050610bb4565b506001949350505050565b6001600160e01b03198116811461107057600080fd5b50565b60006020828403121561108557600080fd5b813561090e8161105a565b60005b838110156110ab578181015183820152602001611093565b838111156108275750506000910152565b600081518084526110d4816020860160208601611090565b601f01601f19169290920160200192915050565b60208152600061090e60208301846110bc565b60006020828403121561110d57600080fd5b5035919050565b80356001600160a01b038116811461112b57600080fd5b919050565b6000806040838503121561114357600080fd5b61114c83611114565b946020939093013593505050565b6020808252825182820181905260009190848201906040850190845b8181101561119257835183529284019291840191600101611176565b50909695505050505050565b6000806000606084860312156111b357600080fd5b6111bc84611114565b92506111ca60208501611114565b9150604084013590509250925092565b6000602082840312156111ec57600080fd5b61090e82611114565b6000806040838503121561120857600080fd5b61121183611114565b91506020830135801515811461122657600080fd5b809150509250929050565b634e487b7160e01b600052604160045260246000fd5b6000806000806080858703121561125d57600080fd5b61126685611114565b935061127460208601611114565b925060408501359150606085013567ffffffffffffffff8082111561129857600080fd5b818701915087601f8301126112ac57600080fd5b8135818111156112be576112be611231565b604051601f8201601f19908116603f011681019083821181831017156112e6576112e6611231565b816040528281528a60208487010111156112ff57600080fd5b82602086016020830137600060208483010152809550505050505092959194509250565b6000806040838503121561133657600080fd5b61133f83611114565b915061134d60208401611114565b90509250929050565b600181811c9082168061136a57607f821691505b6020821081141561138b57634e487b7160e01b600052602260045260246000fd5b50919050565b634e487b7160e01b600052603260045260246000fd5b634e487b7160e01b600052601160045260246000fd5b60006000198214156113d1576113d16113a7565b5060010190565b60208082526031908201527f4552433732313a207472616e736665722063616c6c6572206973206e6f74206f6040820152701ddb995c881b9bdc88185c1c1c9bdd9959607a1b606082015260800190565b6000835161143b818460208801611090565b83519083019061144f818360208801611090565b01949350505050565b6000821982111561146b5761146b6113a7565b500190565b600082821015611482576114826113a7565b500390565b60208082526032908201527f4552433732313a207472616e7366657220746f206e6f6e20455243373231526560408201527131b2b4bb32b91034b6b83632b6b2b73a32b960711b606082015260800190565b634e487b7160e01b600052601260045260246000fd5b6000826114fe576114fe6114d9565b500490565b600082611512576115126114d9565b500690565b6001600160a01b038581168252841660208201526040810183905260806060820181905260009061154a908301846110bc565b9695505050505050565b60006020828403121561156657600080fd5b815161090e8161105a56fea264697066735822122033c18b50d8aec5bcd1f6491c690f16a8b0265e288245a4957ef54d3de8a3fc7264736f6c634300080b0033",
    "sourcePath": "f:/Works/Gigaland/src/smart_contract/contracts/SpectraNFT.sol",
    "compiler": {
        "name": "solc",
        "version": "0.8.11+commit.d7f03943"
    },
    "functionHashes": {
        "approve(address,uint256)": "095ea7b3",
        "balanceOf(address)": "70a08231",
        "getApproved(uint256)": "081812fc",
        "isApprovedForAll(address,address)": "e985e9c5",
        "mintNFT()": "14f710fe",
        "myItems()": "10dd7a4c",
        "name()": "06fdde03",
        "ownerOf(uint256)": "6352211e",
        "safeTransferFrom(address,address,uint256)": "42842e0e",
        "safeTransferFrom(address,address,uint256,bytes)": "b88d4fde",
        "setApprovalForAll(address,bool)": "a22cb465",
        "supportsInterface(bytes4)": "01ffc9a7",
        "symbol()": "95d89b41",
        "tokenURI(uint256)": "c87b56dd",
        "transferFrom(address,address,uint256)": "23b872dd"
    },
    "gasEstimates": {
        "creation": {
            "codeDepositCost": "1108600",
            "executionCost": "infinite",
            "totalCost": "infinite"
        },
        "external": {
            "approve(address,uint256)": "infinite",
            "balanceOf(address)": "2656",
            "getApproved(uint256)": "4760",
            "isApprovedForAll(address,address)": "infinite",
            "mintNFT()": "81641",
            "myItems()": "infinite",
            "name()": "infinite",
            "ownerOf(uint256)": "2601",
            "safeTransferFrom(address,address,uint256)": "infinite",
            "safeTransferFrom(address,address,uint256,bytes)": "infinite",
            "setApprovalForAll(address,bool)": "26708",
            "supportsInterface(bytes4)": "534",
            "symbol()": "infinite",
            "tokenURI(uint256)": "infinite",
            "transferFrom(address,address,uint256)": "infinite"
        }
    }
}